:020000040800F2
:10000000B80C002001440008C1050008C305000821
:10001000C7050008CB050008CF0500080000000058
:10002000000000000000000000000000D3050008F0
:10003000D505000800000000D7050008D905000814
:100040001B4400081B4400081B4400081B44000814
:100050001B4400081B4400081B4400081B44000804
:100060001B4400081B4400081B4400081B440008F4
:100070001B4400081B4400081B4400081B440008E4
:100080001B4400081B4400081B4400081B440008D4
:100090001B4400081B4400081B4400081B440008C4
:1000A0001B4400081B4400081B4400081B440008B4
:1000B0001B440008470B00081B4400081B440008B1
:1000C0001B4400081B4400081B4400081B44000894
:1000D0001B440008BF4200081B440008F50C000840
:1000E0001B4400081B4400081B44000800F002F8F1
:1000F00000F06BF80AA090E8000C82448344AAF157
:100100000107DA4501D100F060F8AFF2090EBAE854
:100110000F0013F0010F18BFFB1A43F0010318473B
:1001200034700000547000000A444FF0000C10F8C6
:10013000013B13F0070408BF10F8014B1D1108BF65
:1001400010F8015B641E05D010F8016B641E01F805
:10015000016BF9D113F0080F1EBF10F8014BAD1C55
:100160000C1B09D16D1E58BF01F801CBFAD505E073
:1001700014F8016B01F8016B6D1EF9D59142D6D3CD
:10018000704700000023002400250026103A28BFF5
:1001900078C1FBD8520728BF30C148BF0B607047F9
:1001A000642905F09D86782905F0D68600207047E1
:1001B0001FB506F055F804000020002106F0E2F813
:1001C000401C60601FBD10B510BD06F06DF81146F3
:1001D000FFF7EEFF00F0F8F806F08BF803B4FFF736
:1001E000F2FF03BC04F010F810B503F0A3FF4FF4C6
:1001F000A06004F0A9FE00F0E1FA00F0C9FB00F0F5
:100200003BFC002141F61F4001F0B3F800F0D4FCA4
:100210004FF4165004F007F800F0F2FF1023ACA2E0
:100220000021082000F05DFF02E0ADA005F018FEFF
:1002300000F08BFB0028F8D1AEA005F011FE10BD38
:1002400010B500F053FC00F005FD1521AF4805F096
:1002500045FF02F065FE10BD10B50024002000F03F
:10026000C5FB0446012C0DD1A9A005F0F9FDACA0F9
:1002700005F0F6FD012002F06AFEADA005F0F0FDEC
:10028000002409E0022C07D1AF48006808B901201A
:1002900000E00020AC49086010BDAC48007801289F
:1002A00070D1AB4800789949C1F80D00A948007891
:1002B000C1F81100A8480078A849097888422ED1D1
:1002C000A7480078A7490978884228D1A64800782D
:1002D000A6490978884222D1A5480078F8B90120BA
:1002E00099490860A3490870A3490870A349087098
:1002F0009B480078401C9A49087001209C4908706E
:10030000974800783C2836DB954800783C3894497B
:10031000087091480078401C8F4908702BE08E4887
:1003200000788E490978884225D18D4800788D491A
:10033000097888421FD18C4800788C490978884216
:1003400019D18B480078012815D100207E4908601A
:10035000874908708248007840B93B20804908707E
:100360007D480078401E7C49087004E07C48007895
:10037000401E7B49087074480068012803D1634916
:10038000087003E01FE00020604908707948007899
:10039000012802D15D49887002E000205B49887025
:1003A0007648007830B974480078012802D157495E
:1003B000087108E07148007828B96F48007810B9D2
:1003C000002052490871704708B5FFF70DFFFFF78D
:1003D00037FF01F048FB7AE05C480078012809D13A
:1003E000002067490860102366A20421084600F037
:1003F00078FE08E0012062490860102365A204210C
:10040000084600F06EFEFFF727FF5A4800780128E3
:1004100005D10A226349644803F09DFF04E00A22E3
:100420006249614803F097FF54480078012806D1DB
:1004300051480078012802D100F0E6FF0DE04F4856
:100440000078012806D14C48007818B9002000F047
:10045000DBFF02E0022000F0D7FFFFF71EFF2B4872
:1004600002F0F5FF642094FBF0F100FB114008BBA3
:100470003849374800F03DFA10234DA202210020F0
:1004800000F02FFE10200223009031480278194618
:10049000282000F0E2FD102347A20221442000F0B2
:1004A00020FE1020022300902A48027819466E2070
:1004B00000F0D3FD4FF47A7094FBF0F100FB114093
:1004C00000B90024012003F072FE601C84B283E7AF
:1004D000536D6172742050657420486F6D65000023
:1004E0004448543131B3F5CABCBBAFCAA7B0DCA392
:1004F000A10D0A00D3B2BCFEB3F5CABCBBAFB3C9F1
:10050000B9A6A3A1A3A10D0A00000000F8030020D2
:10051000476F20746F205365744D6F64650D0A003A
:10052000BFAACABCC5E4CDF8A3A1A3A10D0A0000CF
:10053000574946495F534F465441505F4D4F4445DC
:10054000204F4BA3A10D0A00B881214207000020D3
:100550000C0000200D0000200000002003000020FF
:1005600001000020040000200200002005000020FF
:100570000B00002008000020090000200A000020D5
:10058000B40122425769666920436F6E6E656374D9
:10059000656421005769666920436F6E6E656374F8
:1005A000696E67000E00002000380140180000202E
:1005B00054656D703A00000048756D693A0000009E
:1005C000704700BFFEE700BFFEE700BFFEE700BFC9
:1005D000FEE7704770477047704700000CB5002079
:1005E000019000906C48006840F480306A490860CF
:1005F00000BF6948006800F4003000900198401C7A
:100600000190009818B90198B0F5A06FF1D1624837
:10061000006800F4003010B10120009001E00020DB
:1006200000900098012843D15C48006840F0100019
:100630005A4908600846006820F003000860084630
:10064000006840F002000860534840685249486022
:100650000846406848600846406840F4806048604A
:100660000846406820F47C1048600846406840F422
:10067000E81048600846006840F08070086000BFDD
:100680004548006800F000700028F9D042484068F2
:1006900020F00300404948600846406840F00200EE
:1006A000486000BF3C48406800F00C000828F9D1C1
:1006B0000CBD10B5FFF792FF10BD10B536480068AD
:1006C00040F0010034490860084640683449084059
:1006D0003149486008460068324908402E490860A0
:1006E0000846006820F4802008600846406820F42E
:1006F000FE0048604FF41F008860FFF7DAFF4FF0FC
:1007000000602949086010BD10B5002100200022BA
:10071000214B5B6803F00C0121B1042906D00829A4
:1007200028D107E0214B224C236027E01F4B204CAF
:10073000236023E0184B5B6803F47010164B5B6872
:1007400003F48032022303EB904022B9194B434358
:10075000174C23600DE0104B5B6803F4003323B1AA
:10076000144B4343124C236003E0104B4343104CA3
:10077000236003E00D4B0E4C236000BF00BF064B0F
:100780005B68C3F303130C4CE15C094B1B68CB4063
:10079000074C236010BD0000001002400020024002
:1007A0000000FFF8FFFFF6FE08ED00E000127A00FF
:1007B0002400002000093D002800002008B5012188
:1007C000102004F059F94FF40050ADF8000010204B
:1007D0008DF8030003208DF802006946044803F0F9
:1007E0008FFE4FF40051024803F037FF08BD0000B0
:1007F0000010014010B56348406820F07060614906
:1008000048600846406840F04070486000205E49FB
:100810000860142003F0CBFC01205C49C1F8B8014A
:100820001E2003F0A0FC10BD10B500245548406800
:1008300020F07060534948600846406840F000600E
:10084000486004E0601CC4B2012003F08CFC4E48F8
:100850008038006808B1642CF4DB642C01DB0120D3
:1008600010BD002404E0601CC4B2012003F07BFC36
:1008700045488038006808B9642CF4DB642C01DB3F
:100880000120EDE70020EBE710B5002404E0601C38
:10089000C4B2012003F067FC3B488038006808B10F
:1008A000642CF4DB002404E0601CC4B2012003F0DB
:1008B0005AFC35488038006808B9642CF4DB2820DD
:1008C00003F051FC30488038006808B1012010BDA9
:1008D0000020FCE770B50024002506E06006040E49
:1008E000FFF7D2FF0443681CC5B2082DF6DB204693
:1008F00070BD7CB505460E46FFF77CFFFFF794FF01
:10090000F8B9002405E0FFF7E5FF0DF80400601CCE
:10091000C4B2052CF7DB9DF800009DF801100844D7
:100920009DF8021008449DF8031008449DF8041037
:10093000884208D19DF8000030709DF802002870B0
:1009400001E001207CBD0020FCE708B5012110205A
:1009500004F092F84FF48040ADF8000010208DF8BC
:10096000030003208DF802006946064803F0C8FD25
:100970004FF48041034803F070FEFFF73BFFFFF7A1
:1009800053FF08BD00100140B8012242000022427E
:1009900008B501210C2004F06FF80121084604F08D
:1009A0006BF801212F4803F07CFE01212E4803F053
:1009B00078FE4FF40040ADF8000003208DF80200EF
:1009C00048208DF803006946284803F099FD4FF44C
:1009D0008070ADF8000003208DF8020048208DF8EB
:1009E00003006946224803F08BFD08BD10B504469C
:1009F00014B101201F4908701E48007808B34FF455
:100A000080711B4803F00FFE28B14FF400411748D6
:100A100003F009FEA8B90A2003F0C9FB002015491C
:100A200008704FF48071124803F0FDFD08B90120F1
:100A300010BD4FF400410D4803F0F5FD80B90220D0
:100A4000F6E74FF480710A4803F0EDFD012807D165
:100A5000C103064803F0E7FD012801D105490870EC
:100A60000020E5E70004300000023000000C0140E7
:100A7000000801403800002008B501210C2003F0D7
:100A8000FBFF4FF4E040ADF8000010208DF80300AC
:100A900003208DF802006946124803F031FD4FF43F
:100AA0008051104803F0DBFD4FF400510D4803F076
:100AB000D6FD4FF480410B4803F0D1FD4FF40060A8
:100AC000ADF8000010208DF8030003208DF802001F
:100AD0006946054803F014FD4FF40061024803F035
:100AE000BEFD08BD000C0140000801407FB509258E
:100AF00041F61F440121022003F0CBFFADF808505E
:100B0000ADF804400020ADF80A00ADF8060001A9D8
:100B1000254804F05BFB01221146234804F0CDFE7A
:100B20001D208DF8000000208DF801008DF80200D6
:100B300001208DF80300684604F00BFA01211A48E1
:100B400004F0A0FE7FBD10B50121174805F063F940
:100B500048B300F08EFF15480068B0F57A7F05D8DD
:100B600012480068401C1149086004E000200F4949
:100B7000086002F0E9FB0E48007801280FD10D480B
:100B80000088401C0B4908800846008841F28831E3
:100B9000884204DB002007490880054908700121CC
:100BA000014805F049F910BD000400403C00002058
:100BB0000A0000204000002010B586B04FF4E13458
:100BC0000121042003F058FF0121480403F061FFD4
:100BD0000420ADF8140003208DF8160018208DF8BD
:100BE000170005A94E4803F08BFC0820ADF814004F
:100BF00004208DF8170005A9494803F081FC262040
:100C00008DF8000000208DF8010001208DF8020011
:100C10008DF80300684604F09CF901940020ADF8BB
:100C20000800ADF80A00ADF80C00ADF810000C207B
:100C3000ADF80E0001A93B4803F0C5FF012240F2C8
:100C40002551384804F057F80121364804F047F898
:100C500006B010BD10B586B04FF41654012108201F
:100C600003F00AFF0121880403F013FF4FF48060B2
:100C7000ADF8140003208DF8160018208DF8170029
:100C800005A9294803F03CFC4FF40060ADF81400BE
:100C900004208DF8170005A9234803F031FC272014
:100CA0008DF8000000208DF8010001208DF8020071
:100CB0008DF80300684604F04CF901940020ADF86B
:100CC0000800ADF80A00ADF80C00ADF810000C20DB
:100CD000ADF80E0001A9154803F075FF012240F29E
:100CE0002551124804F007F80121104803F0F7FFDE
:100CF00006B010BD08B540F225510C4804F0E0F8EC
:100D000068B10A4804F05CF8C0B20090012168465E
:100D100000F042FF40F22551044804F0FBF808BD02
:100D20000008014000440040000C01400048004021
:100D300010B54FF48051F94803F08FFC4FF4004197
:100D4000F64803F08AFC4FF40041F44803F087FCB6
:100D50004FF48051F14803F082FC10BD10B54FF400
:100D60008051EE4803F079FC4FF40041EB4803F06A
:100D700076FC4FF40041E94803F06FFC10BD10B55C
:100D80004FF48051E54803F068FC4FF48051E3488C
:100D900003F065FC10BD2DE9F04105462C464FF4EB
:100DA0008051DE4803F05BFC00261CE0274607F07C
:100DB0008007802F04D13902D84803F04EFC04E0AC
:100DC0004FF40041D54803F04AFC6006040E4FF48E
:100DD0008051D24803F041FC4FF48051CF4803F0DA
:100DE0003EFC701CC6B2082EE0DBBDE8F08110B5F9
:100DF0000446FFF79DFF7820FFF7CDFFFFF7BFFF09
:100E00000020FFF7C8FFFFF7BAFF2046FFF7C3FF38
:100E1000FFF7B5FFFFF7A2FF10BD10B50446FFF7BF
:100E200087FF7820FFF7B7FFFFF7A9FF4020FFF704
:100E3000B2FFFFF7A4FF2046FFF7ADFFFFF79FFFCC
:100E4000FFF78CFF10BD70B504460D461DB1E0B232
:100E5000FFF7E3FF02E0E0B2FFF7C9FF70BD70B536
:100E60000646002418E004F1B0000021FFF7EBFF74
:100E700000210846FFF7E7FF00211020FFF7E3FFFE
:100E8000002505E001213046FFF7DDFF681CC5B2F3
:100E9000802DF7DB601CC4B2082CE4DB70BD06E0DB
:100EA00041F6650100E0491E0029FCD1401E0028E2
:100EB000F6D17047014605E0002001E0421CD0B2A7
:100EC0007B28FBDB0A1EA1F10101F5D1704770B54B
:100ED00004460D4605F1B0000021FFF7B4FF1021D4
:100EE00041EA14100021FFF7AEFF04F00F000021CB
:100EF000FFF7A9FF70BD10B500218D20FFF7A3FFFC
:100F000000211420FFF79FFF0021AF20FFF79BFF78
:100F100010BD10B500218D20FFF795FF0021102096
:100F2000FFF791FF0021AE20FFF78DFF10BD70B5D8
:100F3000002418E004F1B0000021FFF784FF002135
:100F40000846FFF780FF00211020FFF77CFF0025F7
:100F500005E001210020FFF776FF681CC5B2802D57
:100F6000F7DB601CC4B2082CE4DB70BD70B5002454
:100F700018E004F1B0000021FFF765FF00210846EA
:100F8000FFF761FF00211020FFF75DFF002505E05E
:100F900001210846FFF757FF681CC5B2802DF7DB1B
:100FA000601CC4B2082CE4DB70BD2DE9F047074695
:100FB0000E469046994600250024A8F12000C5B2AF
:100FC0007F2F02DD0027B01CC6B2B9F1100F24D16B
:100FD00031463846FFF77BFF002408E004EB05119B
:100FE0004F4A505C0121FFF72EFF601CC4B2082C51
:100FF000F4DB701CC1B23846FFF769FF002409E03A
:1010000004EB05110831464A505C0121FFF71BFF34
:10101000601CC4B2082CF3DB12E031463846FFF7FF
:1010200056FF00240AE005EB45013E4A02EB410170
:10103000085D0121FFF707FF601CC4B2062CF2DB3C
:10104000BDE8F08710B50246012000E050430B1EBA
:10105000A1F10104E1B2F9D110BD2DE9FF5F07460E
:1010600091461E460E9D4FF0000A002435E0301BCD
:10107000401EC1B20A20FFF7E5FFB9FBF0F00A21DC
:10108000B0FBF1F201FB1208BAF1000F14D1701E8F
:10109000A04211DDB8F1000F0CD1AB4605EBDB71BE
:1010A000491001FB0471C8B22B4630220199FFF7A9
:1010B0007CFF10E04FF0010AAB4605EBDB714910F5
:1010C00001FB0471C8B208F13001CAB22B46019984
:1010D000FFF76BFF00BF601CC4B2B442C7DBBDE8C2
:1010E000FF9F2DE9F04104460F461546984600261D
:1010F0000FE0AA5D434639462046FFF756FF04F14C
:101100000800C4B2782C02DD0024B81CC7B2701CE1
:10111000C6B2A85D0028ECD1BDE8F081000801400E
:101120000A6B0008E26800082DE9F04180460E468F
:101130001546002731464046FFF7C9FE00240AE065
:101140007B4A02EB8511085D0121FFF77CFE781CCC
:10115000C7B2601CC4B2102CF2DB701CC1B2404696
:10116000FFF7B5FE00240CE06900491C704A02EB51
:101170004111085D0121FFF766FE781CC7B2601CB3
:10118000C4B2102CF0DBBDE8F0812DE9F05F06461B
:101190000F4690461C46DDF828A04FF0000BE117E3
:1011A00004EB5171C910A4EBC10131B92046E1171C
:1011B00004EB5171C1F3C70506E02046E11704EBCB
:1011C0005171C910491CCDB23D4615E02946304643
:1011D000FFF77DFEB1460BE059460BF1010B1AF803
:1011E00001000121FFF72FFE09F1010000F0FF09C6
:1011F000C145F1DB681CC5B2A542E7DBBDE8F09F45
:1012000008B50121084603F037FC0121494803F0E5
:1012100048FA0121484803F044FA0121042003F070
:101220002BFC4FF41040ADF8000010208DF80300A7
:1012300003208DF802006946404803F061F94FF43D
:1012400010413E4803F009FA4FF4487002F0AFFF36
:101250000021AE20FFF7F7FD00210846FFF7F3FD60
:1012600000211020FFF7EFFD00214020FFF7EBFDEC
:101270000021B020FFF7E7FD00218120FFF7E3FD0B
:101280000021FF20FFF7DFFD0021A120FFF7DBFD9C
:101290000021A620FFF7D7FD0021A820FFF7D3FDEE
:1012A00000213F20FFF7CFFD0021C820FFF7CBFD35
:1012B0000021D320FFF7C7FD00210846FFF7C3FD3B
:1012C0000021D520FFF7BFFD00218020FFF7BBFDE7
:1012D0000021D820FFF7B7FD00210520FFF7B3FD5F
:1012E0000021D920FFF7AFFD0021F120FFF7ABFD72
:1012F0000021DA20FFF7A7FD00211220FFF7A3FD50
:101300000021DB20FFF79FFD00213020FFF79BFD30
:1013100000218D20FFF797FD00211420FFF793FD9A
:101320000021AF20FFF78FFDFFF701FE08BD000091
:10133000420000200004300000023000000801409C
:1013400008B50121042003F097FB3020ADF8000020
:1013500010208DF8030003208DF8020069463F48F5
:1013600003F0CEF800203E4908603E49C1F89001E4
:1013700008BD30B589B005460C46FFF7E1FF0121F5
:10138000084603F086FB0121042003F075FB0120D1
:10139000ADF8200018208DF8230003208DF82200DE
:1013A00008A92E4803F0ACF8ADF81850ADF8144079
:1013B0000020ADF81A00ADF8160005A94FF08040E6
:1013C00003F004FF6020ADF804000120ADF8060032
:1013D0000020ADF80A00ADF80C0001A94FF08040E4
:1013E00003F031FF0821C80604F07CFB01218807C7
:1013F00004F048FB0121880704F044FA00204FF074
:101400008041888609B030BD4FF47A71CA06918652
:1014100020B101280AD0022817D10FE00121104A7B
:10142000116000210F4AC2F8901115E000210C4A0A
:10143000116001210B4AC2F890110DE00021084A09
:101440001160084AC2F8901106E00021044A1160B8
:10145000044AC2F8901100BF00BF70470008014065
:1014600094012142000021422DE9F84F06460D4625
:1014700093464FF000082C46A9462F46AA4606B1CF
:101480001DB94FF0FF30BDE8F88F4FF00008E4E2DF
:10149000701C10F8080018286ED2DFE800F0E8E7AA
:1014A000E66D6DE5E4E3E26D6D6D6DE1E0DFDE0CB0
:1014B0001F283B445CEC2078F0490870084601780E
:1014C000EFA004F0CDFCED480078012802D1F449EA
:1014D000086002E00020F2490860B9E26078E7495C
:1014E000487008464178EFA004F0BAFCB0E2A0785A
:1014F000E249887008468178F1A004F0B1FCDF4829
:101500008078012802D1F549087002E00020F349F3
:1015100008709DE2E078D949C8700846C178F0A00B
:1015200004F09EFC94E22079D449087108460179C0
:10153000F2A004F095FCD1480079012804D1F649C5
:101540000870F649087005E00020F3490870012092
:10155000F24908707CE2D4F80500C849C1F80500DA
:101560000846D0F80510EEA004F07AFCC348D0F885
:10157000050018287CD200E069E2DFE800F00C10DA
:1015800014181C2024282C3034383C4044484C503B
:1015900054585C6064680020E649087069E00120E6
:1015A000E449087065E00220E249087061E0032028
:1015B000E04908705DE00420DE49087059E005202C
:1015C000DC49087055E00620DA49087051E0072030
:1015D000D84908704DE00820D649087049E0092034
:1015E000D449087045E00A20D249087041E00B2038
:1015F000D04908703DE00C20CE49087039E00D203C
:10160000CC49087035E00E20CA49087031E00F203F
:10161000C84908702DE01020C649087029E0112043
:10162000C449087025E01220C249087021E0132047
:10163000C04908701DE01420BE49087019E015204B
:10164000BC49087015E01620BA49087011E017204F
:10165000B84908700DE00BE00DE0B7E1EBE1B9E14E
:10166000AEE1A9E1A4E1A2E1A0E19EE19CE19AE161
:1016700000BF00BFECE1D4F809008049C1F80900BF
:101680000846D0F80910ACA004F0EAFB7B48D0F87B
:1016900009003C286FD2DFE800F01E22262A2E32F5
:1016A000363A3E42464A4E52565A5E62666A6F73F8
:1016B000777B7F83878B8F93979B9FA3A7ABAFB3DA
:1016C000B7BBBFC3C7CBCFD3D7DBDFE3F0EFEEEDC4
:1016D000ECEBEAE9E8E700209C49087061E10120B1
:1016E0009A4908705DE102209849087059E1032089
:1016F0009649087055E104209449087051E105208D
:10170000924908704DE106209049087049E1072090
:101710008E49087045E108208C49087041E1092094
:101720008A4908703DE10A208849087039E10B2098
:101730008649087035E10C208449087031E10D209C
:10174000824908702DE10E208049087029E10F20A0
:101750007E49087025E110207C49087021E11120A4
:101760007A4908701DE112207849087019E11320A8
:101770007649087015E113E114207449087010E1EE
:101780001520724908700CE116207049087008E1B4
:1017900017206E49087004E118206C49087000E1B8
:1017A00019206A490870FCE01A2068490870F8E0BE
:1017B0001B2066490870F4E01C2064490870F0E0C2
:1017C0001D2062490870ECE01E2060490870E8E0C6
:1017D0001F205E490870E4E020205C490870E0E0CA
:1017E00021205A490870DCE0222058490870D8E0CE
:1017F000232056490870D4E0242054490870D0E0D2
:10180000252052490870CCE0262050490870C8E0D5
:1018100027204E490870C4E028204C490870C0E0D9
:1018200029204A490870BCE02A2048490870B8E0DD
:101830002B2046490870B4E02C2044490870B0E0E1
:101840002D2042490870ACE02E2040490870A8E0E5
:101850002F203E490870A4E030203C490870A0E0E9
:1018600031203A4908709CE096E091E08CE087E0F6
:1018700082E07DE078E073E06EE069E0F80300204C
:101880004576743A204556454E545F756C747261C6
:1018900076696F6C65745F4C4544202564200A00AE
:1018A000B88121424576743A204556454E545F4CE6
:1018B000696768745F4C4544202564200A00000075
:1018C0004576743A204556454E545F4D75736963AD
:1018D000537769746368202564200A00080000209B
:1018E0004576743A204556454E545F57686974658D
:1018F0004C69676874202564200A00004576743AB4
:10190000204556454E545F446F6F724D6F746F7231
:10191000202564200A000000090000200A000020A1
:101920004576743A204556454E545F484820256414
:101930000A000000000000204576743A2045564514
:101940004E545F4D4D2025640A0000000100002028
:1019500032207049087024E033206E49087020E07E
:1019600034206C4908701CE035206A49087018E082
:1019700036206849087014E037206649087010E086
:101980003820644908700CE039206249087008E08A
:101990003A206049087004E03B205E49087000E08E
:1019A00000BF00BF54E053E052E051E050E04FE090
:1019B0000120594908704BE000205749087047E062
:1019C00099F8001055A004F04BFA41E056A004F03D
:1019D00047FA3DE0387959490870787958490870D4
:1019E000B8795849087010200223009053480278B3
:1019F00006212020FFF731FB102353A206213020BF
:101A0000FFF76FFB1020022300904D48027806215B
:101A10003820FFF722FB10234BA206214820FFF7B6
:101A200060FB1020022300904648027806215020D7
:101A3000FFF713FB0CE045A004F012FA48A004F0F5
:101A40000FFA9AF800104AA004F00AFA00E000BF6A
:101A500000BF08F1010000F0FF08307840453FF773
:101A600017AD00200FE510B51521464804F036FBF0
:101A700010BD45480068401C434908607047424813
:101A800000687047012080F3138800BF00BF3F4803
:101A9000006800F4E0603E490843001D3B490860CF
:101AA000BFF34F8F00BF00BFFEE700B5FFF7E1FFB8
:101AB00000BD08B5002000900121684600F06CF8D8
:101AC00008BD70B505460E4600240DB9601E70BDF8
:101AD00000241BE0295D2F4803F06EF900BF802130
:101AE0002C4803F0D7F90028F9D0022C0DD3285D3B
:101AF000FF280AD15521274803F05EF900BF802155
:101B0000244803F0C7F90028F9D0641CB442E1D39B
:101B10003046DCE701000020070000205253534903
:101B20002025640A000000005452414E5350415297
:101B3000454E545F44415441200A000003000020F8
:101B400004000020050000203A0000004D4F4455DD
:101B50004C4520494E464F202E2E2E0A00000000F4
:101B6000574946204D4F44554C45202E2E2E0A00F5
:101B70006D6F64756C6554797065203A205B2564DF
:101B80005D200A00F8030020C40300200CED00E0F3
:101B90000000FA050048004070B504460D460026D6
:101BA00024B9F0A004F05CF9701E70BD2A462146ED
:101BB000F44802F071FA0646AE4205D0F2A004F0F5
:101BC0004FF94FF0FF30F0E73046EEE710B504462E
:101BD0002CB9F4A004F044F94FF0FF3010BD002000
:101BE00020606060FF20207060700020F6E770B514
:101BF00004460D462CB9F6A004F032F94FF0FF3040
:101C000070BD2121F84804F069FA2A462146F648B9
:101C1000801C04F0ECF9F4483F38A0F85A50012138
:101C200080F84010FFF72BFFEF493F39C8650020CF
:101C3000E6E7F8B505460C4616460DB104B12EB9D7
:101C4000EAA004F00DF94FF0FF30F8BD287800F05D
:101C5000010098B111212278601C81542078401C29
:101C6000207002206B1C012200210090084602F027
:101C7000D8F808B1012000E0002030702878C0F3C7
:101C8000400098B112212278601C81542078401CB9
:101C9000207002206B1C012211460090002002F0EF
:101CA000C0F808B1012000E0002070702878C0F36F
:101CB000800098B113212278601C81542078401C48
:101CC000207002206B1C012201460090002002F0CF
:101CD000A8F808B1012000E00020B0702878C0F317
:101CE000C00098B114212278601C81542078401CD7
:101CF000207002206B1C012203210090002002F0C2
:101D000090F808B1012000E00020F0702878C0F3BE
:101D1000001098B115212278601C81542078401C55
:101D2000207002206B1C012204210090002002F090
:101D300078F808B1012000E0002030712878C0F365
:101D4000401080B116212278601C81542078401CFC
:101D5000207002206B1C052211460090002002F02A
:101D600060F8C6F805002878C0F3801080B117210C
:101D70002278601C81542078401C207002206B1C4B
:101D800006220A210090012002F04BF8C6F8090053
:101D900000205AE72DE9F04104460D4600260027B1
:101DA00004B135B99CA004F05BF84FF0FF30BDE8FA
:101DB000F081FFF764FE074628782178884203D037
:101DC0009FA004F04DF8012668786178884203D01E
:101DD000A3A004F045F80126A878A178884203D092
:101DE000A5A004F03DF80126E878E178884203D008
:101DF000A8A004F035F8012628792179884203D07B
:101E0000ABA004F02DF80126D5F80500D4F8051094
:101E1000884203D0ACA004F023F80126D5F80900CD
:101E2000D4F80910884203D0ACA004F019F80126B8
:101E3000D5F80D00D4F80D1088420AD0AC480068DF
:101E4000381A41F27071884203D3AAA004F008F84E
:101E50000126D5F81100D4F8111088420AD0A44800
:101E60000068381A41F27071884203D3A8A003F0C9
:101E7000F7FF0126012E03D1FFF701FE9C49086000
:101E8000304694E738B504460D4604B12DB9A6A0F6
:101E900003F0E6FF4FF0FF3038BD002028802078A7
:101EA0002B46012200210090084602F01BF86078C2
:101EB0002B46012211460090002002F013F8A07872
:101EC0002B46012202210090002002F00BF8E0785E
:101ED0002B46012203210090002002F003F8207914
:101EE0002B46012204210090002001F0FBFFD4F8D2
:101EF0000500182805D398A003F0B2FF4FF0FF307B
:101F0000CAE7D4F805002B460522114600900020B0
:101F100001F0E8FFD4F809003C2805D399A003F0AC
:101F20009FFF4FF0FF30B7E7D4F809002B46062299
:101F30000A210090012001F0D5FF0221284601F07E
:101F40006BFED4F80D200021012001F07EFEA87068
:101F5000D4F811200021012001F077FEE870002064
:101F60009AE700004552523A2067697A50757444E6
:101F70006174612062756620697320656D70747983
:101F8000200A00004D0500204552523A2046616962
:101F90006C656420746F2072625772697465200AE0
:101FA000000000004552523A2067697A50726F74FF
:101FB0006F636F6C48656164496E69742068656120
:101FC0006420697320656D707479200A0000000038
:101FD0004552523A206461746120697320656D70C6
:101FE0007479200A000000004C04002067697A44DC
:101FF000617461506F696E74324576656E74204508
:1020000072726F72202C20496C6C6567616C205075
:102010006172616D0A00000067697A436865636BED
:102020005265706F7274204572726F72202C204955
:102030006C6C6567616C20506172616D0A00000014
:1020400076616C7565756C74726176696F6C6574B8
:102050005F4C4544204368616E6765640A00000078
:1020600076616C75654C696768745F4C45442043C4
:1020700068616E6765640A0076616C75654D75739D
:102080006963537769746368204368616E67656448
:102090000A00000076616C756557686974654C6963
:1020A000676874204368616E6765640A0000000019
:1020B00076616C7565446F6F724D6F746F722043FB
:1020C00068616E6765640A0076616C7565484820D2
:1020D0004368616E6765640A0000000076616C7594
:1020E000654D4D204368616E6765640A000000001D
:1020F000C803002076616C756554656D706572610A
:1021000074757265204368616E6765640A0000003B
:1021100076616C756548756D69646974792043688A
:10212000616E6765640A000067697A446174615092
:102130006F696E7473325265706F7274446174614A
:10214000204572726F72202C20496C6C6567616C3F
:1021500020506172616D0A005B4552524F525D2002
:1021600076616C75654848204572726F72202C202C
:10217000496C6C6567616C204F766572737465702D
:102180000A0000005B4552524F525D2076616C752B
:10219000654D4D204572726F72202C20496C6C6524
:1021A00067616C204F766572737465700A00000079
:1021B0002DE9F04780460C4617461D46089E94F8C8
:1021C00000900CB105B136B9F7A003F049FE4FF00D
:1021D000FF30BDE8F087B8F1000F53D11921FE4858
:1021E00003F07CFFB9F1010F06D0B9F1020F11D055
:1021F000B9F1050F44D123E0F74A6832F649601C73
:10220000FFF717FD0120F449603908700025002010
:10221000306036E0F049643101F11900FFF732FE19
:1022200050B9ED486038D0F8C400C5F8010003206B
:1022300028700520306002E04FF0FF30C9E720E051
:102240007A1E611CE448463803F0D1FE781EE2494C
:102250006039C1F833001021DF48603890F8602001
:1022600061308154613890F86000401CDA4960396F
:1022700081F860000320087000250020306000E035
:1022800000BF00BF0020A4E72DE9F04F8FB0064645
:102290008B461746994600200E90824680460025C0
:1022A00001ACBBF1000F06D1CCA003F0D9FD681E34
:1022B0000FB0BDE8F08FB9F1010F06D196F8088094
:1022C00008F10600384485B201E0781D85B22B463E
:1022D00042463946C7A003F0C3FDFF2004F8010BB6
:1022E00004F8010B281204F8010B04F8015B3079A3
:1022F000401C04F8010B707904F8010B002004F86D
:10230000010B04F8019B4FF0080AB9F1010F0DD140
:1023100004F8018B0AF1010A01A901EB0A00424607
:1023200006F1090103F063FEC244444437B101A938
:1023300001EB0A003A46594603F059FE291D01A84F
:1023400001F09EFA0146E81C01AA1154291D01A8BA
:10235000FFF7B7FB0E900E98002806DAAFA00E9993
:1023600003F07EFD6FF00100A2E70020A0E72DE959
:10237000FF4105460E461746002436B9ADA003F0CE
:102380006FFD601E04B0BDE8F0816846FFF71EFCDB
:1023900005208DF804009048603890F83710D0F888
:1023A0003700401C8C4A603AC2F83700C8B28DF83A
:1023B00005008DF808500A2001F075FAADF802000A
:1023C0003A4631460DF1090003F011FE0E21684630
:1023D00001F056FA8DF80D000E216846FFF771FBEB
:1023E0000446002C06DA21469CA003F039FD6FF06C
:1023F0000100C7E70E216846FFF7F9FB2046C1E759
:1024000070B50546FFF73BFB044673497D3128460E
:10241000FFF7C0FC012814D197A003F021FD6E49FD
:1024200064312846FFF72EFD28B904226A49643139
:102430001046FFF79CFF1522294667487D3003F0C0
:10244000D6FD9348B4FBF0F100FB1140D0B99148A0
:102450000068A04216D090A003F002FD5E496431EE
:102460002846FFF70FFD28B904225B496431104666
:10247000FFF77DFF1522294657487D3003F0B7FD51
:102480008448046070BD2DE9FE4F80460E46174615
:102490004FF0000B00200290814682460025344612
:1024A0000090B8F1000F01D006B137B980A003F059
:1024B000D7FC4FF0FF30BDE8FE8F404601F070FDC5
:1024C00000F0FF0ABAF1000F02D14FF0FF30F2E73F
:1024D0004FF000095DE0012201A9404601F08BFDAB
:1024E0008346BBF1000F52D07D480078FF281FD1F2
:1024F0009DF80400FF281BD17A48007848B9FF20D6
:1025000020706070022078490880012075490870A9
:1025100034E075480088042830DD73480088A842FC
:102520002CD0FF202070607002206F49088025E0C9
:102530006B480078FF2803D19DF8040055281DD072
:1025400068480078012819D19DF804006649098877
:10255000605465480088401C63490880084600882C
:1025600004280BDD0094009C608801F09CF9001D9C
:1025700085B25D480088A84200D10CE09DF80400B7
:102580005749087059480078401C5849087009F1AB
:102590000109D1459FDB00BF53480088042801DDB5
:1025A0005148A5E0C7E0000067697A50726F746F08
:1025B000636F6C49737375656450726F6365737391
:1025C000204572726F72202C20496C6C6567616CBB
:1025D00020506172616D0A006D0400205B4552520B
:1025E0005D202064617461204973204E756C6C20FD
:1025F0000A0000006C656E203D202564202C2073AD
:102600004469644C656E203D202564202C6461740F
:10261000615F6C656E203D2025640A0075617274EF
:10262000207772697465206572726F72202564204C
:102630000A00000067697A5265706F7274446174B1
:1026400061204572726F72202C20496C6C65676145
:102650006C20506172616D0A000000004552523AD0
:102660002075617274207772697465206572726F6B
:1026700072202564200A00006368616E6765642C1F
:10268000207265706F727420646174610A000000CA
:10269000C0270900CC030020496E666F3A2036300F
:1026A0003053207265706F727420646174610A0027
:1026B00067697A50726F746F636F6C4765744F6EA1
:1026C000655061636B6574204572726F72202C20B7
:1026D000496C6C6567616C20506172616D0A000025
:1026E000D4030020D0030020D2030020D503002013
:1026F0000088A8421FD1F5480188204601F0C0F8A3
:102700000290F2480088401E215C029881420FD15D
:102710002A462146304603F06AFC3D800020EC4901
:102720000870EA490880EB490870EB490870C2E676
:102730006FF00100BFE60120BDE610B50024E748B8
:1027400090F8400000B910BDE5A003F089FBE34814
:10275000B0F85A104130FFF7B4F90446DF48B0F83A
:102760005A00A04202D0E6A003F07AFBFFF787F9F7
:10277000DA49C86500BFE6E770B50446D74D413574
:1027800034B9AFF2B47003F06BFB4FF0FF3070BDA3
:102790002879401C2179884204D12121CF483F303B
:1027A00003F09CFC0020F2E73EB50446002524B966
:1027B000D9A003F055FB681E3EBD206800906068FC
:1027C00001909DF80400401CC0B28DF80400052063
:1027D00001F069F8ADF802000921684601F050F8EF
:1027E0008DF8080009216846FFF76BF90546002DB2
:1027F00004DA2946AFF29C1003F032FB2846DBE7EF
:1028000010B5B64890F84000012825D1B34890F89B
:102810003F0002281BDAFFF732F9B049C96D401AB0
:10282000C82819D9FFF72BF90446AC4890F83F3077
:10283000C26D2146C3A003F013FBFFF77EFFA7483C
:1028400090F83F00401CA54981F83F0004E0212199
:10285000A2483F3003F042FC10BD30B59DB00446A5
:1028600000252CB9C1A003F0FBFA681E1DB030BDD5
:102870006846FFF7ABF902208DF8040060798DF807
:102880000500C6A103C9CDE90201C7A103C9CDE96D
:102890000401C8A103C9CDE90801C9A103C9CDE953
:1028A00006012022C9A10AA803F0E6FB2022D0A13C
:1028B0000DF1520003F09BFB0020CDF84A00CDF84B
:1028C0004E009DF851008DF851009DF8510040F0E8
:1028D00002018DF85110002000F0E5FFADF848002E
:1028E0006F2000F0E0FFADF802007321684600F0B1
:1028F000C7FF8DF8720073216846FFF7E2F80546BE
:10290000002D04DA2946AFF2AC2003F0A9FA2846DC
:10291000ACE7FEB504460E46002524B9BDA003F081
:102920009FFA681EFEBD6846FFF750F912208DF829
:10293000040060798DF80500062000F0B4FFADF8C2
:1029400002008DF808600A21684600F099FF8DF8B2
:1029500009000A216846FFF7B4F80546002D04DA9D
:102960002946AFF2083003F07BFA2846DAE770B563
:10297000044625462CB9B2A003F072FA4FF0FF309E
:1029800070BD5648F330A9680160E9684160298A42
:102990000181A97C81725149B1F8F30000F083FFF5
:1029A0004E49A1F8F300D1F8FB0000F089FF4B4934
:1029B000C1F8FB000E21494890F8922093308154D1
:1029C000933890F89200401C444981F8920004200A
:1029D00008700020D4E710B5FFF751F8044600BF97
:1029E000FFF74DF8001BB0F5167FF9D9FFF74AF84D
:1029F00010BD10B504462CB996A003F031FA4FF083
:102A0000FF3010BD208900F04EFF20819D480078E6
:102A1000C0F38000217AC1F3800188422DD0207A52
:102A2000C0F38000002829D0207A00F0010078B19E
:102A300000212A4890F879207A3081547A3890F829
:102A40007900401C254981F879008FA003F008FA2D
:102A5000207AC0F3400000280FD001211F4890F8D1
:102A600079207A3081547A3890F87900401C1B49DB
:102A700081F879008CA003F0F3F926E1207A00F0C8
:102A8000010078B10021154890F879207A308154FE
:102A90007A3890F87900401C104981F879007AA0C2
:102AA00003F0DEF9207AC0F3400068B102210B4840
:102AB00090F879207A3081547A3890F87900401C67
:102AC000064981F87900FDE0FFE00000D203002014
:102AD000D0030020D5030020D40300200D040020E3
:102AE0005761726E696E673A2074696D656F7574AF
:102AF0002C20726573656E642064617461200A0025
:102B00004552523A20726573656E64206461746147
:102B1000206572726F720A004552523A2067697AD4
:102B200050726F746F636F6C436F6D6D6F6E416346
:102B30006B206461746120697320656D7074792005
:102B40000A0000005761726E696E673A67697A50D1
:102B5000726F746F636F6C526573656E64446174F9
:102B6000612025642025642025640A0067697A5065
:102B7000726F746F636F6C476574446576696365E3
:102B8000496E666F204572726F72202C20496C6C02
:102B90006567616C20506172616D0A0030303030C1
:102BA00030303034000000003030303030303032DF
:102BB000000000003033303330303030000000008F
:102BC0003033303130313030000000006461303358
:102BD000663661313535356234653132626130399E
:102BE00066666261666264363065393400000000F2
:102BF000643165383739303065383435343863639B
:102C000062306532336235636366366231366463DF
:102C10000000000067697A50726F746F636F6C45D3
:102C200072726F72436D64204572726F72202C2035
:102C3000496C6C6567616C20506172616D0A0000BF
:102C40004552523A204E545020697320656D70747D
:102C500079200A0067697A50726F746F636F6C4DE8
:102C60006F64756C65537461747573204572726F0F
:102C700072202C20496C6C6567616C205061726118
:102C80006D0A0000D60300204F6E426F61726469C6
:102C90006E673A20536F66744150206F72205765FB
:102CA00062206D6F64650A004F6E426F61726469E5
:102CB0006E673A204169724C696E6B206D6F646576
:102CC0000A000000F1A003F0CBF8F7480078C0F349
:102CD000C000217AC1F3C00188422CD0207AC108FB
:102CE000F148007861F3C300EF490870207AC0F31F
:102CF000C00080B10321ED4890F879207A308154EA
:102D00007A3890F87900401CE84981F87900E8A009
:102D100003F0A6F80FE00421E44890F879207A3017
:102D200081547A3890F87900401CE04981F87900A4
:102D3000E7A003F095F8DC480078C0F30010217A92
:102D4000C1F3001188422CD0207A0109D6480078BE
:102D500061F30410D4490870207AC0F3001080B1E8
:102D60000521D24890F879207A3081547A3890F849
:102D70007900401CCD4981F87900DDA003F070F89E
:102D80000FE00621C94890F879207A3081547A38CA
:102D900090F87900401CC54981F87900DCA003F067
:102DA0005FF8C1480078C0F34010217AC1F34011A8
:102DB00088422CD0207A4109BB48007861F3451045
:102DC000B9490870207AC0F3401080B10721B74894
:102DD00090F879207A3081547A3890F87900401C44
:102DE000B24981F87900D3A003F03AF80FE0082146
:102DF000AE4890F879207A3081547A3890F879008A
:102E0000401CAA4981F87900D1A003F029F8A6480E
:102E10004078C0F3C001607AC0F3C00081422CD07A
:102E2000607AC108A048407861F3C3009E494870A9
:102E3000607AC0F3C00080B10B219C4890F87920E3
:102E40007A3081547A3890F87900401C974981F89B
:102E50007900C7A003F004F80FE00C21934890F824
:102E600079207A3081547A3890F87900401C8F4963
:102E700081F87900C5A002F0F3FF8B484078C0F3D9
:102E80000011607AC0F3001081422CD0607A0109F1
:102E90008548407861F3041083494870607AC0F334
:102EA000001080B10921814890F879207A3081544E
:102EB0007A3890F87900401C7C4981F87900BBA0F1
:102EC00002F0CEFF0FE00A21784890F879207A309E
:102ED00081547A3890F87900401C744981F879005F
:102EE000B9A002F0BDFF0D21704890F879207A302A
:102EF00081547A3890F87900401C6C4981F8790047
:102F0000607A00F0070081F8F200084690F8F210AD
:102F1000B4A002F0A5FF022064490870002070E50B
:102F200010B53220B3490860B348C860084601F0C4
:102F300019F818B9B1A002F093FF02E0B4A002F0B2
:102F40008FFF4FF4A071594803F0C8F810BD30B599
:102F500087B005460024062D7ED2DFE805F0033158
:102F60006195949301A8FEF731FE0B208DF80800BF
:102F70004E4890F83710D0F83700401C4B4AC2F842
:102F80003700C8B28DF80900052000F08CFCADF8C0
:102F90000600092101A800F073FC8DF80C0009213E
:102FA00001A8FEF78EFD0446002C04DA2146AFF698
:102FB000541002F055FF092101A8FEF718FEBFE1E9
:102FC00004A8FEF703FE09208DF81400374890F896
:102FD0003710D0F83700401C344AC2F83700C8B266
:102FE0008DF815008DF81850062000F05CFCADF847
:102FF00012000A2104A800F043FC8DF819000A21F0
:1030000004A8FEF75EFD0446002C04DA2146AFF664
:10301000B41002F025FF0A2104A8FEF7E8FD8FE1B5
:1030200004A8FEF7D3FD09208DF814001F4890F87E
:103030003710D0F83700401C1C4AC2F83700C8B21D
:103040008DF815008DF81850062000F02CFCADF816
:1030500012000A2104A800E06EE100F011FC8DF8D6
:1030600019000A2104A8FEF72CFD0446002C04DAFE
:103070002146AFF6182002F0F3FE0A2104A8FEF75D
:10308000B6FD5DE12AE1FBE0CCE000004F6E426F4F
:10309000617264696E673A2053746174696F6E205F
:1030A0006D6F64650A000000D60300200D04002047
:1030B00057694669207374617475733A20696E208C
:1030C00062696E64696E67206D6F64650A00000056
:1030D00057694669207374617475733A206F75740B
:1030E0002062696E64696E67206D6F64650A000016
:1030F00057694669207374617475733A20636F6E03
:103100006E656374656420726F757465720A000081
:1031100057694669207374617475733A20646973E2
:10312000636F6E6E656374656420726F757465722B
:103130000A00000057694669207374617475733A18
:1031400020636F6E6E6563746564206D326D0A0076
:1031500057694669207374617475733A20646973A2
:10316000636F6E6E6563746564206D326D0A000076
:1031700057694669207374617475733A2061707081
:1031800020636F6E6E6563740A00000057694669BC
:10319000207374617475733A206E6F2061707020B3
:1031A000636F6E6E6563740A0000000057694669BC
:1031B000207374617475733A20696E20746573743A
:1031C000206D6F64650A0000576946692073746159
:1031D0007475733A206F75742074657374206D6F05
:1031E00064650A0052535349206973202564200AFC
:1031F000000000004D0500205D0500207262437252
:10320000656174652053756363657373200A0000FC
:103210007262437265617465204661696C64200A5C
:103220000000000001A8FEF7D1FC13208DF8080073
:10323000FB4890F83710D0F83700401CF84AC2F825
:103240003700C8B28DF80900052000F02CFBADF85E
:103250000600092101A800F013FB8DF80C000921DC
:1032600001A8FEF72EFC0446002C04DA2146AFF636
:10327000144002F0F5FD092101A8FEF7B8FC5FE05B
:1032800001A8FEF7A3FC15208DF80800E44890F88B
:103290003710D0F83700401CE14AC2F83700C8B2F6
:1032A0008DF80900052000F0FEFAADF806000921AE
:1032B00001A800F0E5FA8DF80C00092101A8FEF73D
:1032C00000FC0446002C04DA2146AFF6704002F000
:1032D000C7FD092101A8FEF78AFC31E001A8FEF72D
:1032E00075FC29208DF80800CD4890F83710D0F8EB
:1032F0003700401CCA4AC2F83700C8B28DF809002E
:10330000052000F0D0FAADF80600092101A800F070
:10331000B7FA8DF80C00092101A8FEF7D2FB04468C
:10332000002C04DA2146AFF6CC4002F099FD0921C9
:1033300001A8FEF75CFC03E0BAA002F091FD00BF1B
:1033400000BF204607B030BD3EB500246846FEF7FA
:103350003DFC17208DF80400B14890F83710D0F8E4
:103360003700401CAE4AC2F83700C8B28DF80500DD
:10337000052000F098FAADF802000921684600F037
:103380007FFA8DF8080009216846FEF79AFB04468B
:10339000002C03DA2146A9A002F062FD092168464B
:1033A000FEF725FC3EBD3EB500246846FEF70EFC48
:1033B00021208DF804009A4890F83710D0F8370093
:1033C000401C974AC2F83700C8B28DF805000020AB
:1033D0008DF80800062000F066FAADF802000A2118
:1033E000684600F04DFA8DF809000A216846FEF79C
:1033F00068FB0446002C03DA214690A002F030FD61
:103400000A216846FEF7F3FB3EBD70B5044625462B
:103410002CB992A002F024FD4FF0FF3070BD412284
:1034200005F108017E48FF3002F0E1FD0F217C48E4
:1034300090F8AB20AC308154AC3890F8AB00401C15
:10344000774981F8AB00052008700020E6E72DE9F8
:10345000F04190B005460026002002900190002423
:103460008046002735B981A002F0FAFC601E10B03A
:10347000BDE8F081FFF7C4F902AA6949491C8548F3
:10348000FFF701F80646002E72D183A002F0E8FC97
:10349000634C641C20790F284FD00ADC0E2873D2AD
:1034A000DFE800F07216721A727243387272447258
:1034B000453C182852D006DC112847D0142846D0A5
:1034C000162861D134E0222854D02A285CD130E07B
:1034D0002046FFF7C2F95FE0E279A17973A002F01C
:1034E000BFFC01A8009007F10900BDF808301A1AC6
:1034F0004B480930C11903AB4046FEF759FE40B9AD
:10350000E37903A92046019AFEF7BEFE6BA002F004
:10351000A7FC41E02046FFF747F93DE02046FFF7D2
:1035200043F92046FFF765FA36E000BF00BF00BF51
:1035300000BF2046FFF720F92EE02046FFF734F9C0
:1035400061A002F08DFCFFF746FA25E024E020465A
:10355000FFF712F961A002F083FC1DE02046FFF79F
:103560000BF92046FFF703FA64A002F079FC13E0A0
:1035700013E009E02046FFF7FFF82046FFF745FF7C
:1035800064A002F06DFC07E002212046FFF7C1F9BC
:1035900067A002F065FC00BF0EE016F1020F0BD130
:1035A0001F4C641C01212046FFF7B3F966A002F00E
:1035B00057FC6FF001005AE71948007806282DD211
:1035C000DFE800F0EC031221CEDD00201449087082
:1035D0001522C831A1F16800FDF746FF19211048F6
:1035E000603002F07BFDDAE000200D490870012216
:1035F000F231A1F17900FDF737FF19210848793040
:1036000002F06CFDCBE00020054908700846D0F8B8
:1036100033201A316030FDF727FFC0E0BEE0000024
:103620000D0400204552523A204366674D6F646591
:10363000206572726F72210A000000004552525BD1
:103640004E54505D3A2075617274207772697465CA
:10365000206572726F72202564200A004E5450203B
:10366000697320656D707479200A000047697A7764
:1036700069747348616E646C65204572726F722064
:103680002C20496C6C6567616C20506172616D0A19
:10369000000000004D050020476574204F6E652036
:1036A0005061636B6574210A00000000666C6167FD
:1036B000202578202578200A0000000041636B4413
:1036C000617461203A200A007265706F72743A4D1D
:1036D0004355207265626F6F74210A0041636B204D
:1036E00050524F44554354494F4E5F4D4F4445202F
:1036F00073756363657373200A00000041636B2078
:103700004745545F55545420737563636573732044
:103710000A00000041636B204745545F4D6F64759C
:103720006C652073756363657373200A0000000085
:103730004552523A20636D6420636F646520657260
:10374000726F72210A0000004552523A2063686588
:10375000636B2073756D206572726F72210A0000B1
:1037600000203B4908700C22F331A1F16100FDF704
:103770007BFE19213648923002F0B0FC0FE00020A9
:10378000334908704122FF31A1F15400FDF76CFE6E
:1037900041212F48AB3002F0A1FC00E000BF00BF88
:1037A0002846FEF72DFE002061E62DE9F04188B0A5
:1037B00006460F464FF0000801ACB81D85B23EB971
:1037C00024A002F04DFB4FF0FF3008B0BDE8F081BF
:1037D000FF2004F8010B04F8010B281204F8010B78
:1037E00004F8015B052004F8010B194890F8371024
:1037F000D0F83700401C164AC2F8370004F8011B05
:10380000002004F8010B04F8010B062004F8010B5A
:103810003A4631460DF10D0002F0E9FB291D01A8E1
:1038200000F02EF80146E81C01AA1154291D01A838
:10383000FEF747F98046B8F1000F03DA41460F481A
:1038400002F00EFB291D01A8FEF7D1F90020BCE70C
:103850000D0400205B4552525D2067697A776974D8
:1038600073506173737468726F75676844617461D3
:10387000204572726F72200A000000005C2600086A
:1038800010B502460024002302B109B9002010BD82
:10389000022303E0D05C2044C4B25B1C481E984263
:1038A000F8D82046F3E701B581B0002000906946C2
:1038B00001AA5078087010784870BDF800000CBD5F
:1038C0000146080601F47F4240EA022001F47F022B
:1038D00040EA122040EA1160704710B50246002409
:1038E000302A05DB392A03DCA2F13000C3B20EE036
:1038F000412A05DB462A03DCA2F13700C3B206E009
:10390000612A04DB662A02DCA2F15700C3B2302927
:1039100005DB392903DCA1F13000C4B20EE04129F6
:1039200005DB462903DCA1F13700C4B206E06129BA
:1039300004DB662902DCA1F15700C4B204EB0310DA
:10394000C0B210BD70B5044600250026204602F026
:103950002FFB06460CB9681E70BD002505E0605DB2
:10396000302801D00020F7E76D1CB542F7D30120C5
:10397000F2E72DE9F043034600BF002500240026AE
:103980000027012901D002290DD1A3F1010C4FF02C
:103990006408BCFBF8F4BCFBF8F908FB19C501F19D
:1039A0000C06174609E04FF0640CB3FBFCF4B3FBC4
:1039B000FCF80CFB18350E46174606F1010C4FF0CB
:1039C0001A080CFB08FC4FF00A08BCFBF8FC05EBDE
:1039D000950808EB94084FF0020909FB1488C444C9
:1039E000BC44ACF10100002806DB4FF0070C90FB53
:1039F000FCF80CFB180C07E04FF0070C90FBFCF8F0
:103A00000CFB180C0CF1070C6046BDE8F083014676
:103A10000A46C81701EB90708010A1EB800070B9C6
:103A2000642091FBF0F300FB131030B94FF4C87021
:103A300091FBF0F300FB131008B901207047002040
:103A4000FCE710B504462046FFF7E1FF10B14FF444
:103A5000B77010BD40F26D10FBE72DE9F04190B05A
:103A600080460E4640F2B2753022694901A802F044
:103A700003FB344604F5E14400BF11E02846FFF79C
:103A8000E0FF074640F2A3207843B4EBC01F06D303
:103A900040F2A3207843A4EBC0146D1C00E001E0C9
:103AA000002CEBD100BFA8B2ADF83400002518E01F
:103AB000BDF83400FFF7ABFF08B11D20029001A84C
:103AC00050F8250040F2A3214843B4EBC01F07D3B0
:103AD00001A850F825004843A4EBC0146D1C00E079
:103AE00001E0002CE4D100BF1C200290681CC0B291
:103AF0008DF83600012506E04648844202D3241A98
:103B00006D1C00E001E0002CF6D100BFE8B28DF89A
:103B100037004FF46160B4FBF0F0C0B28DF83800AC
:103B20004FF46160B4FBF0F100FB11403C21B0FBAD
:103B3000F1F0C0B28DF839003C20B4FBF0F100FB8D
:103B400011408DF83A00CDF83B600D98C8F80000A0
:103B50000E98C8F80400BDF83C00A8F808009DF8CD
:103B60003E0088F80A0010B0BDE8F0812DE9F05F52
:103B700080460E46914600241CE016F814A0600012
:103B8000401C16F800B0504602F05AF93038C5B261
:103B9000092D01DDE81FC5B2584602F051F9303851
:103BA000C7B2092F01DDF81FC7B207EB051008F8EF
:103BB0000400641C4C45E0DBBDE8F09FF0B5034613
:103BC00000201EE00E5CF71706EB17773F1107F198
:103BD00030050E5CF71706EB17773F11A6EB0717BA
:103BE0003037FCB2392D01DDEE1DF5B2392C01DD87
:103BF000E61DF4B203F81050012606EB40069C5572
:103C0000401C9042DEDB002603F81260F0BD00008D
:103C1000FC7000088051010030B502460B460021BF
:103C2000002400250AB9481E30BD002108E0545C7C
:103C3000581A401E155C5554581A401E1454491CFD
:103C4000B1EB530FF3D30020EEE710B5034600208D
:103C5000541AB4FBF3F010BD10B50346002002FB6C
:103C6000031010BD2DE9F04704460E461546002707
:103C70003146284602F0C0FD8146214602F0FAFB9B
:103C8000804602F0B9FC07463846BDE8F0872DE9CA
:103C9000F04704460E4615460027284602F0CCFCA5
:103CA0008146214602F0DCFC8046314602F080FB72
:103CB00007463846BDE8F087024612B102F0070019
:103CC00028B9082901D8002070470120FCE702F03C
:103CD0000700C0F10800884201D30020F4E701206A
:103CE000F2E72DE9F0470546884614461E464FF098
:103CF0000009CA460027002314B9581EBDE8F08702
:103D0000EB0841462846FFF7D7FF07463FB9E05C7E
:103D100005F0070106FA01F10843E0541DE0012F08
:103D20001BD1F0B205F00701C1F1080140FA01F919
:103D300005F00700C0F10801FF20084100EA060A6B
:103D4000581C205C40EA0900591C6054E05C05F0F6
:103D500007010AFA01F10843E0540020CEE72DE9FB
:103D6000F04F8FB004460F4690461D460026B246DF
:103D7000B146B34600200E90B8F1000F00D025B92F
:103D80004FF0FF300FB0BDE8F08F4FEAD4092A465C
:103D9000414601A802F02BF9012D09D9294601A8B5
:103DA000FFF73AFFB0F1FF3F02D14FF0FF30E9E7F4
:103DB00039462046FFF780FF8246BAF1000F0CD14A
:103DC00001A810F8090004F007010841C7F1080232
:103DD000FF2111410840064321E0BAF1010F1ED135
:103DE00001A909F10100085C04F00701C1F1080113
:103DF000791AC1F10802FF21114100EA010B01A863
:103E000010F8090004F0070108410E9004F00700C3
:103E1000C0F108010BFA01F006430E980643304644
:103E2000B0E72DE9F04F8FB005460C46164699468F
:103E3000189F4FF0000AD34600200E908046B9F13B
:103E4000000F00D027B94FF0FF300FB0BDE8F08F62
:103E50003A46494601A802F0CAF8012F09D9394665
:103E600001A8FFF7D9FEB0F1FF3F02D14FF0FF30BC
:103E7000EBE731462046FFF71FFF8246BAF1000FFD
:103E80000CD101A8405D04F007010841C6F1080209
:103E9000FF211141084040EA080821E0BAF1010F72
:103EA0001ED101A9681C085C04F00701C1F10801DA
:103EB000711AC1F10802FF21114100EA010B01A8AA
:103EC000405D04F0070108410E9004F00700C0F1C6
:103ED00008010BFA01F040EA08080E9848EA0008C9
:103EE0004046B2E72DE9F04704460D461746089EC6
:103EF0004FF00009CA46C8461BB94FF0FF30BDE875
:103F0000F08739462846FFF7D7FE8046B8F1000F04
:103F100007D1185D05F0070106FA01F108431855AD
:103F20001EE0B8F1010F1BD1F0B205F00701C1F19D
:103F3000080140FA01F905F00700C0F10801FF206F
:103F4000084100EA060A601C185C40EA0900611C8E
:103F50005854185D05F007010AFA01F10843185595
:103F60000020CCE7014611B94FF0FF307047C86818
:103F70004860C86888600020F8E7014611B94FF032
:103F8000FF3070470020C86048608860086000BF4C
:103F9000F7E7014611B94FF0FF3070470868FCE7BA
:103FA00000B5024612B94FF0FF3000BD506891686D
:103FB000884201D10020F8E750689168884203D216
:103FC00090685168401AF0E71046FFF7E2FF516829
:103FD0009368C91A401AE8E730B5044614B94FF09F
:103FE000FF3030BD2046FFF7D4FF05462046FFF7DF
:103FF000D7FF281AF5E72DE9F04104460F4616468B
:10400000002514B9681EBDE8F08117B94FF0FF30E4
:10401000F9E76068A168884214D22046FFF7C0FF24
:10402000B04201D9304602E02046FFF7B9FF05460D
:1040300061682A46384601F0DAFF6068284460600B
:104040002846E0E72046FFF7A4FF6168E268891A86
:10405000401AB0420AD9354661682A46384601F00E
:10406000C6FF6068284460602846CCE72046FFF71A
:1040700090FF6168E268891A451A61682A463846E5
:1040800001F0B5FFE0686060721B79192046FFF708
:10409000B2FF05442846B6E72DE9F04104460F4635
:1040A0001546002604B11FB94FF0FF30BDE8F0817E
:1040B0002046FFF791FFA84202D86FF00100F5E714
:1040C0006068A16888422AD82046FFF762FFA1688D
:1040D000E268891A461AB54213D8A0682A463946BA
:1040E00001F085FFA0682844A0602046FFF751FF3B
:1040F000E1680844A168884201D1E068A0602846D0
:10410000D4E7A0683246394601F071FFE068A0604C
:10411000AA1BB9192046FFF7BFFF3044C6E7A068C5
:104120002A46394601F063FFA0682844A06028466B
:10413000BCE7000010B56FF0040000F054FF2E48FB
:1041400000682E49B0FBF1F02D4908700846007850
:1041500000EB4001C1EBC0104FF6FF7101EAC00057
:104160002849088010BD0146254A12784A434FF07D
:10417000E0235A6100229A611A46126942F0010254
:104180001A6100BF4FF0E022106900F001021AB17D
:1041900000F48032002AF5D04FF0E022126922F0BC
:1041A00001024FF0E0231A6100229A617047014634
:1041B000144A12884A434FF0E0235A6100229A6160
:1041C0001A46126942F001021A6100BF4FF0E02264
:1041D000106900F001021AB100F48032002AF5D013
:1041E0004FF0E022126922F001024FF0E0231A6141
:1041F00000229A61704700002400002000127A001B
:10420000D8030020DA030020014600BF704700BF3A
:10421000764A128802F04002002AF9D0C2B2734BEB
:104220001B1D1A80704710B586B00446012144F268
:10423000040000F021FC4FF40070ADF814000320DE
:104240008DF8160018208DF8170005A9684800F0B1
:1042500057F94FF48060ADF8140004208DF8170072
:1042600005A9634800F04CF925208DF800000320D3
:104270008DF801008DF8020001208DF803006846DA
:1042800000F067FE01940020ADF80800ADF80A00C8
:10429000ADF80C00ADF810000C20ADF80E0001A92F
:1042A000544800F090FC012240F22551514800F0A2
:1042B00022FD01214F4800F012FD06B010BD10B5DF
:1042C00040F225514B4800F0FBFD10B3494800F087
:1042D00077FDC4B24848008800F40040C8B9464899
:1042E000008800F4804060B10A2C03D000204249CD
:1042F000088020E04048008840F400403E490880A3
:1043000019E00D2C06D13C48008840F480403A4921
:10431000088010E038480088C0F30D0037490C547D
:1043200035480088401C3449088008460088C72862
:1043300001DD0020088010BD70B504460D462946F9
:10434000204600F039FD00BF8021204600F0A2FD8C
:104350000028F9D070BD2DE9F04107460D461646FC
:10436000002405E0295D3846FFF7E6FF601CC4B273
:10437000B442F7DB00BF4021384600F08BFD002837
:10438000F9D0BDE8F08170B506460C46002500BFA7
:10439000615D3046FFF7D0FF6D1C605D0028F7D1EE
:1043A00000BF4021304600F075FD0028F9D070BDF7
:1043B0002DE9F04105460C46260AE7B2314628466B
:1043C00000F0FAFC00BF8021284600F063FD0028C1
:1043D000F9D03946284600F0EFFC00BF802128467E
:1043E00000F058FD0028F9D0BDE8F08100440040FD
:1043F0000008014000380140E00300208F05002044
:104400000948804709480047FEE7FEE7FEE7FEE768
:10441000FEE7FEE7FEE7FEE7FEE7FEE704480549A4
:10442000054A064B70470000BB060008ED00000877
:10443000B8060020B80C0020B8080020B8080020FA
:1044400010B50446CC48844208D10121042000F074
:104450002DFB0021042000F029FB46E0C7488442E0
:1044600008D10121082000F021FB0021082000F0E4
:104470001DFB3AE0C248844208D10121102000F01F
:1044800015FB0021102000F011FB2EE0BD488442F6
:1044900008D10121202000F009FB0021202000F09C
:1044A00005FB22E0B848844208D10121402000F0F9
:1044B000FDFA0021402000F0F9FA16E0B3488442EA
:1044C00008D10121802000F0F1FA0021802000F0C5
:1044D000EDFA0AE0AE48844207D10121801500F0D0
:1044E000E5FA0021A01500F0E1FA10BD10B5012198
:1044F000084600F0DBFA0021012000F0D7FA10BDD9
:104500002DE9F0410246002500260020002300246A
:10451000002791F803C00CF00F0591F803C00CF0D0
:10452000100CBCF1000F03D091F802C04CEA050555
:1045300091F800C0BCF1000F31D0146800202BE0CE
:104540004FF0010C0CFA00F3B1F800C00CEA0306BE
:104550009E4220D183004FF00F0C0CFA03F7BC43AE
:1045600005FA03FC4CEA040491F803C0BCF1280FDF
:1045700006D14FF0010C0CFA00FCC2F814C00AE09E
:1045800091F803C0BCF1480F05D14FF0010C0CFAB3
:1045900000FCC2F810C0401C0828D1D31460B1F848
:1045A00000C0BCF1FF0F34DD546800202EE000F1A4
:1045B000080C4FF0010808FA0CF3B1F800C00CEA3F
:1045C00003069E4221D183004FF00F0C0CFA03F733
:1045D000BC4305FA03FC4CEA040491F803C0BCF1A7
:1045E000280F05D100F1080C08FA0CF8C2F8148065
:1045F00091F803C0BCF1480F07D100F1080C4FF04F
:10460000010808FA0CF8C2F81080401C0828CED324
:104610005460BDE8F0814FF6FF7101800221817086
:104620000421C17070470246002093680B400BB113
:10463000012000E0002070470146886880B2704782
:1046400002460020D3680B400BB1012000E000209F
:1046500070470146C86880B2704701617047416188
:1046600070470AB1016100E041617047C160704765
:104670004FF480320A43826181618261826982697A
:10468000704702460020434B18684FF6807318406D
:1046900040EA021008433F4B186070473E49C8612A
:1046A0007047F0B50A46002300240021002500F0E1
:1046B0000046B6F1004F02D1364EF16901E0354EA9
:1046C0007168C0F3034583B200F44016B6F5401F8D
:1046D00008D121F070612F4E766826F070662D4F5C
:1046E0007E6012E000F48016B6F5801F06D1032626
:1046F00006FA05F4A14341F0706106E0460D36016B
:1047000003FA06F6B14341F0706122B1460D36015D
:1047100003FA06F6314300F00046B6F1004F02D12D
:104720001C4EF16101E01B4E7160F0BD30B50022FE
:104730008B071C0F0F2303FA04F2164B08338C105F
:1047400053F824309343134C08348D1044F825302B
:1047500023468C1053F824308C07240F00FA04F4FD
:1047600023430C4C08348D1044F8253030BD0A49E1
:10477000DC3108607047000000080140000C014077
:10478000001001400014014000180140001C0140CD
:10479000002001400000014000002042DF48006886
:1047A00040F00100DD49086008464068DC490840E7
:1047B000DA49486008460068DA490840D749086085
:1047C0000846006820F4802008600846406820F40D
:1047D000FE0048604FF41F0088607047CF490968A9
:1047E00021F48031CD4A11601146096821F48021FD
:1047F0001160B0F5803F03D0B0F5802F0ED106E0F8
:10480000C649096841F48031C44A116007E0C349D0
:10481000096841F4A021C14A116000E000BF00BF57
:10482000704710B501460022002300204A11012ADA
:1048300002D1BA4C236806E0022A02D1B74C236A9F
:1048400001E0B64C636A01F01F02012494401C4051
:104850000CB1012000E0002010BD38B50020009010
:104860000024002500BF3120FFF7DBFF054600983C
:10487000401C00900098B0F5A06F01D0002DF2D040
:104880003120FFF7CEFF08B1012400E000242046CC
:1048900038BD01460020A14A106820F0F80040EA27
:1048A000C10010607047A0490860704702460020B0
:1048B0009A4B586820F47C1042EA01031843974B46
:1048C0005860704798490866704701460020934A2F
:1048D000506820F003000843506070478F484068DC
:1048E00000F00C007047014600208C4A506820F010
:1048F000F00008435060704701460020874A506826
:1049000020F4E06008435060704701460020834A6D
:10491000506820F4605040EAC1005060704729B1EF
:104920007E4A527A02437D4B5A7204E07B4A527AA5
:1049300082437A4B5A7270477B49D831086070477E
:1049400001460020754A506820F4404008435060FA
:1049500070470021714A20321170704A82F820108D
:10496000012802D004280AD104E001216B4A203238
:10497000117005E00521694A2032117000E000BF86
:1049800000BF70476949086070476449096A01437C
:10499000624A11627047654944390860704730B512
:1049A00000210022002400235C4D6D6805F00C01FD
:1049B00021B1042905D0082923D105E05C4D05600B
:1049C00022E05B4D05601FE0544D6D6805F47012E8
:1049D000524D6D6805F48034022505EB92421CB9F6
:1049E000544D554305600BE04C4D6D6805F40035A2
:1049F0001DB1504D5543056002E04D4D55430560D6
:104A000002E04B4D056000BF00BF444D6D6805F0EE
:104A1000F0010909484D6B5C0568DD4045603F4D7C
:104A20006D6805F4E061090A434D6B5C4568DD4043
:104A300085603A4D6D6805F46051C90A3E4D6B5C66
:104A40004568DD40C560354D6D6805F44041890B12
:104A50003A4D6B5CC568B5FBF3F5056130BD29B116
:104A60002E4A526902432D4B5A6104E02B4A526987
:104A700082432A4B5A61704729B1284A92690243FE
:104A8000264B9A6104E0254A92698243234B9A613E
:104A9000704729B1214AD2690243204BDA6104E010
:104AA0001E4AD26982431D4BDA61704729B11B4A05
:104AB000D2680243194BDA6004E0184AD268824394
:104AC000164BDA60704729B1144A12690243134B3E
:104AD0001A6104E0114A12698243104B1A6170474F
:104AE00012494039086070470F49C86470470B4944
:104AF000C87170470948406A40F0807007494862B1
:104B0000704701460020054A92680A400AB1012018
:104B100000E0002070470149887270470010024091
:104B20000000FFF8FFFFF6FE000042428004424210
:104B300000127A0000093D00E2030020F203002089
:104B400010B50446FB48844209D101218803FFF7D0
:104B5000ADFF00214FF48040FFF7A8FF32E0F64898
:104B6000844209D101214804FFF7ADFF00214FF431
:104B70000030FFF7A8FF25E0F048844209D1012169
:104B80008804FFF7A0FF00214FF48020FFF79BFF70
:104B900018E0EB48844209D10121C804FFF793FFD4
:104BA00000214FF40020FFF78EFF0BE0E548844220
:104BB00008D101210805FFF786FF00214FF480107E
:104BC000FFF781FF10BD2DE9F04786B005460E4680
:104BD0000024A24600BFA1460027B08900B100BF53
:104BE0002F462C8A4CF6FF700440F08804432C8238
:104BF000AC894EF6F3100440B088318908437189BE
:104C000008430443AC81AC8A4FF6FF400440B089AE
:104C10000443AC8201A8FFF7C2FEC648874202D116
:104C2000DDF810A001E0DDF80CA0A88900F4004038
:104C300040B10AEBCA0000EB0A1031684900B0FB32
:104C4000F1F807E00AEBCA0000EB0A1031688900AE
:104C5000B0FBF1F86420B8FBF0F0040120096421F6
:104C600001FB1089A88900F4004040B1322000EB1C
:104C7000C900B0FBF1F000F00700044308E0322067
:104C800000EB09106421B0FBF1F000F00F000443C9
:104C90002C8106B0BDE8F0874FF416510160002169
:104CA0008180C18001810C21418100218181704777
:104CB00010B502460020108A4FF2FF0318400B88FF
:104CC0004C8823438C882343CC8823431843108289
:104CD00010BD0021018041808180C180704721B1D9
:104CE000828942F40052828104E082894DF6FF738A
:104CF0001A4082817047F0B5034600240026002543
:104D0000002040F66A17B94200D100BF1846C1F32F
:104D1000421401F01F06012707FA06F5012C01D104
:104D20000C3004E0022C01D1103000E014301AB134
:104D300007682F43076002E00768AF430760F0BDD4
:104D40001AB1838A0B43838202E0838A8B43838276
:104D50007047028A4FF6F0731A400282028A0A43B1
:104D60000282704782894FF2FF731A4082818289E2
:104D70000A438281704721B1828942F00202828116
:104D800004E082894FF6FD731A4082817047028ADF
:104D90004FF6DF731A400282028A0A43028270478A
:104DA00021B1028A42F48042028204E0028A4BF678
:104DB000FF731A4002827047C1F308028280704775
:104DC00001468888C0F308007047818941F00101DD
:104DD00081817047028BD2B20283028B42EA0122A8
:104DE00002837047028B02F47F420283028B0A43E4
:104DF0000283704721B1828A42F02002828204E05D
:104E0000828A4FF6DF731A408282704721B1828A0C
:104E100042F01002828204E0828A4FF6EF731A4059
:104E20008282704721B1828A42F00802828204E0C5
:104E3000828A4FF6F7731A408282704721B18289C5
:104E400042F40042828103E08289C2F30E02828131
:104E5000704721B1828A42F40062828204E0828A31
:104E60004FF2FF731A4082827047828A4FF6FB73BB
:104E70001A408282828A0A438282704721B1828AE2
:104E800042F00202828204E0828A4FF6FD731A40E9
:104E90008282704702460020B1F5007F00D100BF3A
:104EA00013880B400BB1012000E00020704701F493
:104EB0000072B2F5007F00D100BFCA430280704784
:104EC00070B50246002400230025002040F66A1633
:104ED000B14200D100BFC1F3421501F01F0301260A
:104EE00006FA03F3012D02D19689334006E0022D24
:104EF00002D1168A334001E0968A33400C12012613
:104F000006FA04F41688344013B10CB1012000E015
:104F1000002070BD10B50022002340F66A14A142A3
:104F200000D100BF0A1201249440A3B2DC430480E4
:104F300010BD00000038014000440040004800401F
:104F4000004C00400050004031490143314A11609B
:104F5000704770B5002100230F22C47804B32D4C94
:104F6000246804F4E064C4F5E064210AC1F1040398
:104F7000CA40447804FA03F18478144021430901BB
:104F8000254C0678A155047804F01F050124AC4097
:104F900005786D11AD0005F1E025C5F8004109E087
:104FA000047804F01F050124AC401C4D06787611EE
:104FB00045F8264070BD1A4A0A400243154B1B1F94
:104FC0001A60704739B1134A121D12680243114B1F
:104FD0001B1D1A6006E00F4A121D126882430D4B1A
:104FE0001B1D1A607047042808D14FF0E0210969A1
:104FF00041F004014FF0E022116107E04FF0E021A1
:10500000096921F004014FF0E022116170470000AE
:105010000000FA050CED00E000E400E080E100E0B3
:1050200080FFFF1F10B50446FE48844208D10121CD
:10503000C014FFF73BFD0021E014FFF737FDC4E08B
:10504000B4F1804F08D101210846FFF73CFD002153
:105050000120FFF738FDB8E0F348844208D1012170
:105060000220FFF730FD00210220FFF72CFDACE00D
:10507000EE48844208D101210420FFF724FD0021DD
:105080000420FFF720FDA0E0E948844208D1012177
:105090000820FFF718FD00210820FFF714FD94E019
:1050A000E448844208D101211020FFF70CFD0021C3
:1050B0001020FFF708FD88E0DF48844208D1012175
:1050C0002020FFF700FD00212020FFF7FCFC7CE002
:1050D000DA48844208D101214014FFF7E7FC00219F
:1050E0006014FFF7E3FC70E0D548844209D1012148
:1050F000C804FFF7DBFC00214FF40020FFF7D6FCCB
:1051000063E0D048844209D101210805FFF7CEFCB5
:1051100000214FF48010FFF7C9FC56E0CA488442D2
:1051200009D101214805FFF7C1FC00214FF400100F
:10513000FFF7BCFC49E0C548844208D1012140206A
:10514000FFF7C1FC00214020FFF7BDFC3DE0C04857
:10515000844208D101218020FFF7B5FC0021802086
:10516000FFF7B1FC31E0BB48844208D10121801532
:10517000FFF7A9FC0021A015FFF7A5FC25E0B64824
:10518000844209D101210804FFF790FC00214FF46B
:105190008030FFF78BFC18E0B048844209D1012130
:1051A0004804FFF783FC00214FF40030FFF77EFC3A
:1051B0000BE0AB48844208D101218804FFF776FC5C
:1051C00000214FF48020FFF771FC10BD00220288FF
:1051D000944B98420ED0994B98420BD0B0F1804F2F
:1051E00008D0914B984205D0904B984202D0904BFA
:1051F000984204D14FF68F731A404B881A438D4B57
:10520000984207D08C4B984204D04FF6FF431A4087
:10521000CB881A4302808B8883850B880385814B5A
:1052200098420BD0854B984208D08B4B984205D0C2
:105230008A4B984202D08A4B984201D10B7A03865E
:1052400001238382704770B5002400220023058C5F
:105250004FF6FE7635400584028C8388048B4FF62A
:105260008F752C40B51E2C400D882C43751E2A408E
:105270000D892A434D882A436A4DA8420BD06F4DB1
:10528000A84208D0744DA84205D0744DA84202D05F
:10529000734DA84213D14FF6F7752A404D892A4322
:1052A0004FF6FB752A408D882A434FF6FF652B4049
:1052B0004FF6FF552B408D892B43CD892B4383809F
:1052C0000483CD888586028470BD70B500240022D9
:1052D0000023058C4FF6EF7635400584028C8388D9
:1052E000048B48F6FF752C404FF6FF452C400D8887
:1052F0004FF6FF7606EA05252C434FF6DF752A4068
:105300000D8906EA05152A434D8806EA05152A4344
:10531000444DA84202D0494DA8421DD14FF67F7599
:105320002A404D894FF6FF7606EA05152A434FF6C7
:10533000BF752A408D8806EA05152A434FF6FF35CA
:105340002B404FF2FF752B408D8906EA85052B43D4
:10535000CD8906EA85052B4383800483CD880587A4
:10536000028470BD70B5002400220023058C4FF626
:10537000FF6635400584028C8388848B4FF68F75D9
:105380002C404FF6FC752C400D882C434FF6FF55F2
:105390002A400D894FF6FF7606EA05252A434D88F7
:1053A00006EA05252A431F4DA84202D0234DA842F4
:1053B0001DD14FF2FF752A404D894FF6FF7606EA60
:1053C00005252A434FF6FF352A408D8806EA052534
:1053D0002A434EF6FF752B404DF6FF752B408D8905
:1053E00006EA05152B43CD8906EA05152B43838074
:1053F0008483CD888587028470BD70B50022002328
:105400000024058C4EF6FF7635400584038C848895
:10541000828B48F6FF752A404FF6FF452A400D88DB
:1054200020E00000002C0140000400400008004083
:10543000000C004000100040001400400034014007
:10544000004C014000500140005401400018004051
:10545000001C00400020004000400140004401408A
:10546000004801404FF6FF7606EA05252A434DF62F
:10547000FF752B400D8906EA05352B434D8806EA5A
:1054800005352B43FA4DA84202D0FA4DA84208D167
:105490004BF6FF752C408D894FF6FF7606EA851591
:1054A0002C4384808283CD88A0F84050038470BD53
:1054B000828B4FF2FF331A408283828B4FF6FF7349
:1054C00003EA01231A4382837047F0B50C46154660
:1054D000002200210026078C4EF6FF7C07EA0C070D
:1054E0000784828B018C4FF6FF7707EA043640F67B
:1054F000FF473A404FF6FF7707EA05273A434FF652
:10550000FF7707EA03373A43D94FB8420ED0D94F55
:10551000B8420BD0B0F1804F08D0D74FB84205D079
:10552000D64FB84202D0D64FB84206D14DF6FF77DB
:10553000394046F48057394305E047F6FF57394074
:1055400044F48057394382830184F0BD828B4FF647
:10555000F3731A408283828B0A4382837047F0B5CB
:105560000C461546002200210026078C4FF6FF6CE2
:1055700007EA0C070784828B018C4FF6FF7707EA56
:1055800004264FF60C773A404FF6FF7707EA0317E9
:105590002F433A43B64FB8420ED0B64FB8420BD065
:1055A000B0F1804F08D0B44FB84205D0B34FB842E5
:1055B00002D0B34FB84206D14FF6FF57394046F4F8
:1055C0008077394305E04FF2FF57394044F4807744
:1055D000394382830184F0BD028B4FF2FF331A40BE
:1055E0000283028B4FF6FF7303EA01231A430283FF
:1055F0007047F0B50C461546002200210026078CA6
:105600004FF6EF7C07EA0C070784028B018C4FF6FC
:10561000FF7707EA041640F6FF473A404FF6FF7758
:1056200007EA03373A434FF6FF7707EA05273A437D
:105630008F4FB8420ED08F4FB8420BD0B0F1804F91
:1056400008D08D4FB84205D08C4FB84202D08C4F55
:10565000B84206D14FF6DF77394046F0100739439C
:1056600005E04FF65F77394044F010073943028375
:105670000184F0BD028B4FF6F3731A400283028B54
:105680000A4302837047F0B50C46154600220021FC
:10569000068C4FF6FE773E400684028B018C4FF657
:1056A0000C7632407E1C06EA03162E433243704EBF
:1056B000B0420ED06F4EB0420BD0B0F1804F08D048
:1056C0006D4EB04205D06D4EB04202D06C4EB0422D
:1056D00006D14FF6FD76314044F00106314305E036
:1056E0004FF6F576314044F00106314302830184E0
:1056F000F0BD70B505460C465D4885420ED05D484C
:1057000085420BD0B5F1804F08D05B48854205D06B
:105710005A48854202D05A48854200D100E000BF75
:10572000208850B92389A28861882846FFF7ABFFFB
:10573000E1882846FFF79EFF25E0208804280AD14B
:105740002389A28861882846FFF753FFE18828460D
:10575000FFF742FF17E0208808280AD12389A28892
:1057600061882846FFF7FBFEE1882846FFF7EEFE3A
:1057700009E02389A28861882846FFF7A6FEE18810
:105780002846FFF795FE70BD2DE9F04105460C4611
:1057900000260127608808B9022600E00026A088BC
:1057A000012801D1022700E001272088A0B9238920
:1057B000A28861882846FFF766FFE1882846FFF740
:1057C00059FF23893A4631462846FFF712FFE18800
:1057D0002846FFF701FF13E02389A2886188284645
:1057E000FFF707FFE1882846FFF7F6FE23893A46D0
:1057F00031462846FFF747FFE1882846FFF73AFF82
:10580000BDE8F0810A884B881A438B881A43CB88FD
:105810001A430B891A434B891A438B891A43A0F800
:10582000442070474FF6FF71818000210180C180C4
:105830004180017270470021018041808180C180D8
:10584000018141818181C1817047002101804180B6
:10585000012181800021C1800181704700210180E8
:1058600041808180C1800181418181817047000038
:10587000002C0140003401400004004000080040BA
:10588000000C004021B1028842F00102028004E0D5
:1058900002884FF6FE731A400280704731B1B0F8AB
:1058A000442042F40042A0F8442005E0B0F844202F
:1058B000C2F30E02A0F8442070471AB183890B434B
:1058C000838102E083898B438381704781827047A3
:1058D00041EA0203A0F8483070471AB183890B43AC
:1058E000838102E083898B438381704701894FF66E
:1058F000F8721140018170470A46002101894FF674
:105900008F73194011430181704730B504460D462D
:1059100029462046FFF7F0FF208940F0070020814C
:1059200030BD2DE9F04104460D4616461F46602D58
:1059300006D13B46012231462046FFF75AFE05E0DC
:105940003B46012231462046FFF79DFE2946204670
:10595000FFF7D2FF208940F007002081BDE8F081E9
:1059600030B50C4600210189C9B24FF6FF7505EA32
:105970000325154325432943018130BD2DE9F0411D
:1059800005460E4617469846002443463A46314699
:105990002846FFF7E5FF2C894FF6F870044044F0E5
:1059A00007044FF68F70044044F070042C81BDE86A
:1059B000F081F0B504460D4616461F463B4632467A
:1059C00029462046FFF7CCFF208940F48040208103
:1059D000F0BD0185828270470A46002101884FF69A
:1059E0008F731940114301807047F0B50C4615467E
:1059F0001E460021002200230189028B038C4FF6F2
:105A0000F877394021434FF6FC473A4040F20117FE
:105A10003A434FF6DD773B404FF6FF7707EA06172C
:105A20002F433B43018102830384F0BD0A460021DA
:105A3000018B4FF68F7319401143018370470A465B
:105A40000021018B48F6FF7319404FF6FF7303EAFC
:105A500002231943018370470A460021818B4FF6C8
:105A60008F7319401143818370470A460021818B4F
:105A700048F6FF7319404FF6FF7303EA02231943F8
:105A80008183704721B1028842F08002028004E0E5
:105A900002884FF67F731A400280704721B18288D6
:105AA00042F00402828004E082884FF6FB731A40C1
:105AB0008280704721B1828842F00802828004E02F
:105AC00082884FF6F7731A408280704721B182882E
:105AD00042F00102828004E082884FF6FE731A4091
